:060000000A128A110C280F
:10000800FE00030EF0000A08F1000A128A11992F67
:100018000A128A110F2883135A3084006A300A1290
:100028008A11F3270A128A11A0308400B4300A1208
:100038008A11F3270A128A1183010A128A112428C5
:1000480006300A128A1127250A128A110A128A1101
:100058004A270A128A110A128A11BD240A128A1121
:10006800203083120313D600D60B382800000A125A
:100078008A11E6270A128A11F601F60A01300A12D5
:100088008A1130240A128A110B30F7008030F800E8
:100098000A128A1121260A128A118312031387145D
:1000A8000D3083120313D700FB30D600D60B5A2825
:1000B800D70B5A288312031387109301831603134F
:1000C800141C672868286228831203131308D600B3
:1000D800D7015608DA005708DB000D3083120313E6
:1000E800D700FB30D600D60B7728D70B772883129A
:1000F800031387140D3083120313D700FB30D60087
:10010800D60B8428D70B8428831203138710013059
:10011800930083160313141C922893288D288312A6
:1001280003131308E9000D3083120313D700FB30C3
:10013800D600D60B9D28D70B9D288312031387144E
:100148000D3083120313D700FB30D600D60BAA2834
:10015800D70BAA288312031307150D308312031334
:10016800D700FB30D600D60BB728D70BB728831299
:1001780003130711930183160313141CC428C528FD
:10018800BF28831203131308E800071503308312EE
:100198000313D7009730D600D60BD028D70BD0281A
:1001A800831203136908D600D701D801D901590869
:1001B800B5005808B4005708B3005608B20000301C
:1001C800B9000030B8000030B7000030B600003089
:1001D800BD000030BC000030BB00FF30BA0000306A
:1001E800C1000030C0000030BF000130BE00003048
:1001F800C5000030C4000030C300C830C2000A1275
:100208008A11EB220A128A11831203133308E700BA
:100218003208E6000A128A1186250A128A110A1281
:100228008A112D220A128A11831203136808D60034
:10023800D701D801D9015908B5005808B4005708A2
:10024800B3005608B2000030B9000030B8000030E2
:10025800B7000030B6000030BD000030BC000030F0
:10026800BB00FF30BA000030C1000030C0000030D1
:10027800BF000130BE000030C5000030C4000030AF
:10028800C300C830C2000A128A11EB220A128A116E
:10029800831203133308E5003208E4000A128A11B6
:1002A80086250A128A110A128A112D220A128A1127
:1002B800033083120313D7009730D600D60B622978
:1002C800D70B622951280A128A110C2883120313AA
:1002D800AF002530AB00182A2530300603197529E0
:1002E800762980292F088400300883138000013084
:1002F800A7002708AF07182AAA018729C030A70036
:100308002708AA04A1290130A407FF302407840084
:100318000A128A1124270A128A11B000A700A8011C
:100328002808003A03199929182A2708003A0319B6
:10033800282A753A03198229182A2B08840083135E
:100348000008AC00840A0008AD000230A7002708A6
:10035800AB07B001B00A3008A7002707013E8400A8
:100368000A128A1124270A128A11A8000A128A116D
:1003780024270A128A11A90029082D02031DC6295B
:1003880028082C020318C929CA29CB29D5290130E4
:10039800A7002708B00705303006031DD429D52942
:1003A800AF293008AE000F2A0A30A0000030A100A3
:1003B8002E08A7002707013E84000A128A11242765
:1003C8000A128A11F2000A128A1124270A128A11C3
:1003D800F3002D08F5002C08F4000A128A1167268C
:1003E8000A128A11730883120313A3007208A20069
:1003F8000A128A11AB260A128A11831203132008E3
:10040800303EB0002F08840030088313800001308C
:10041800A7002708AF07FF30A7002708AE072E0A56
:10042800031D172A182AD8290130A407FF302407EA
:1004380084000A128A1124270A128A11B00030088F
:10044800031D272A282A70292F0884008313800176
:100458000800F601F60A02300A128A1130240A123C
:100468008A111C3083120313A4006308A6006208D3
:10047800A500A0300A128A116A210A128A11A03036
:10048800F7000030F8000A128A1121260A128A1190
:100498000230F60002300A128A1130240A128A1138
:1004A8001F30F7008030F8000A128A1121260A123C
:1004B8008A110330F60002300A128A1130240A1217
:1004C8008A111C3083120313A4006108A600600877
:1004D800A500A0300A128A116A210A128A11A030D6
:1004E800F7000030F8000A128A1121260A128A1130
:1004F8000C30F60002300A128A1130240A128A11CE
:100508001C3083120313A4005F08A6005E08A50030
:10051800A0300A128A116A210A128A11A030F70043
:100528000030F8000A128A1121260A128A110D30A9
:10053800F60002300A128A1130240A128A111F307A
:10054800F7008030F8000A128A1121260A128A114F
:100558000E30F60002300A128A1130240A128A116B
:100568001C3083120313A4005D08A6005C08A500D4
:10057800A0300A128A116A210A128A11A030F700E3
:100588000030F8000A128A1121260A128A1107304F
:10059800F60002300A128A1130240A128A111C301D
:1005A80083120313A4005B08A6005A08A500A03014
:1005B8000A128A116A210A128A11A030F700003043
:1005C800F8000A128A1121260A128A1108008312D9
:1005D80003133A08C6003B08C7003C08C8003D089A
:1005E800C9003608C6023708031C370FFC2AFD2A43
:1005F800C7023808031C380F022B032BC80239081E
:10060800031C390F082B092BC9024908A700480801
:10061800A6004708A5004608A4003208CA00330807
:10062800CB003408CC003508CD003608CA0237089C
:10063800031C370F202B212BCB023808031C380F43
:10064800262B272BCC023908031C390F2C2B2D2BDA
:10065800CD024D08F5004C08F4004B08F3004A0899
:10066800F2004208CE004308CF004408D0004508F5
:10067800D1003E08CE023F08031C3F0F442B452BF8
:10068800CF024008031C400F4A2B4B2BD0024108D5
:10069800031C410F502B512BD1025108F90050086F
:1006A800F8004F08F7004E08F6000A128A11D525FF
:1006B8000A128A11750883120313AB007408AA0082
:1006C8007308A9007208A8000A128A1193230A1253
:1006D8008A118312031324083E07D200003003183E
:1006E80001302507D4010318D40A3F07D3000318A3
:1006F800D40A26085407D5010318D50A4007D400A0
:100708000318D50A270855074107D5005508B5002D
:100718005408B4005308B3005208B200080083120A
:100728000313AD01A71F992B9A2BA72BA409A50981
:10073800A609A709A40A0319A50A0319A60A0319F1
:10074800A70AAD01AD0AAB1FAA2BAB2BBA2BA80980
:10075800A909AA09AB09A80A0319A90A0319AA0A27
:100768000319AB0A0130FB007B08AD060030B1006D
:100778000030B0000030AF000030AE00270826047B
:10078800250424040319C92BCA2B172CAC01AC0A65
:10079800DA2B0130FB000310A40DA50DA60DA70D43
:1007A800FB0BCF2B0130FB007B08AC07A71FDD2B11
:1007B800DE2BCD2B0130FB000310AE0DAF0DB00DBD
:1007C800B10DFB0BE02B27082B02031DF52B260888
:1007D8002A02031DF52B25082902031DF52B2408E1
:1007E8002802031CF82BF92B082C2408A80225083A
:1007F800031C250FA9022608031C260FAA02270896
:10080800031C270FAB022E1401300310A70CA60CF3
:10081800A50CA40CFF3E031D092C0130AC02031DDE
:10082800162C172CDE2B2D0803191B2C1C2C272CFF
:10083800AE09AF09B009B109AE0A0319AF0A031925
:10084800B00A0319B10A3108A7003008A6002F081A
:10085800A5002E08A4000800F8007803031D352C15
:10086800362C532C76087F3EFB007B08F7000430BB
:100878000310F70CFF3E031D3C2C7708F9007B089A
:100888000F39FA0079080A128A11B6270A128A1152
:100898007A080A128A11B6270A128A11BC2C023069
:1008A8007806031D582C592C762C7608BF3EFB0081
:1008B8007B08F70004300310F70CFF3E031D5F2C84
:1008C8007708F9007B080F39FA0079080A128A11AB
:1008D800B6270A128A117A080A128A11B6270A124A
:1008E8008A11BC2C03307806031D7B2C7C2C992C98
:1008F8007608933EFB007B08F70004300310F70CE2
:10090800FF3E031D822C7708F9007B080F39FA0097
:1009180079080A128A11B6270A128A117A080A1265
:100928008A11B6270A128A11BC2C04307806031DD6
:100938009E2C9F2CBC2C7608D33EFB007B08F7002E
:1009480004300310F70CFF3E031DA52C7708F900AF
:100958007B080F39FA0079080A128A11B6270A1299
:100968008A117A080A128A11B6270A128A11BC2C2F
:100978000800831603130811881108128812081337
:10098800881300300A128A1177270A128A111A303E
:10099800F700F830F600F60BCF2CF70BCF2C000041
:1009A80003300A128A11B6270A128A110730F70093
:1009B8007D30F600F60BDE2CF70BDE2C03300A1226
:1009C8008A11B6270A128A110F30F7004730F6004D
:1009D800F60BEC2CF70BEC2CF12C03300A128A11D5
:1009E800B6270A128A1102300A128A11B6270A1289
:1009F8008A1102300A128A11B6270A128A1108309F
:100A08000A128A11B6270A128A1100300A128A11AC
:100A1800B6270A128A110C300A128A11B6270A124E
:100A28008A1100300A128A11B6270A128A11063072
:100A38000A128A11B6270A128A110A128A11E6279F
:100A48000A128A110800F20007307206031D2D2DC4
:100A58002E2D322D7030831603138F040630720644
:100A6800031D372D382D3E2D831603130F088F399C
:100A780060388F0005307206031D432D442D4A2D22
:100A8800831603130F088F3950388F00043072060D
:100A9800031D4F2D502D562D831603130F088F3924
:100AA80040388F0003307206031D5B2D5C2D622DCC
:100AB800831603130F088F3930388F0002307206FF
:100AC800031D672D682D6E2D831603130F088F39AC
:100AD80020388F007203031D722D732D792D831614
:100AE80003130F088F3910388F007208031D7D2DEE
:100AF8007E2D822D8F30831603138F0583160313E3
:100B08000F1408002830F2000030F300831203139A
:100B18006708F5006608F4000A128A1167260A12A7
:100B28008A11730883120313E3007208E200283065
:100B3800A0000030A1006708A3006608A2000A12FE
:100B48008A11AB260A128A11831203132108E100C5
:100B58002008E0002830F2000030F3006508F500B6
:100B68006408F4000A128A1167260A128A117308A7
:100B780083120313DF007208DE002830A000003063
:100B8800A1006508A3006408A2000A128A11AB2616
:100B98000A128A11831203132108DD002008DC00E1
:100BA8000800003083120313A3000030A2000030B5
:100BB800A1000030A000721CE22DE32DFC2D760868
:100BC80083120313A007770803110318013E0319C2
:100BD800EE2DA107780803110318013E0319F52D1E
:100BE800A207790803110318013E0319FC2DA30776
:100BF8000130FA000310F60DF70DF80DF90DFA0B98
:100C0800FE2D01300310F50CF40CF30CF20CFF3E32
:100C1800031D062E7508740473047204031D152E33
:100C2800162EDF2D831203132308F5002208F40083
:100C38002108F3002008F200080083120313A00122
:100C4800A1014A2E20087707FA007808F90003184E
:100C5800F90AA01F302EF9037908FB007B088312DC
:100C68000313FF007A0884000A128A111A270A124D
:100C78008A110A128A11E7260A128A110130831290
:100C88000313A0070318A10A0030A107200877075B
:100C9800FA007808F9000318F90AA01F542EF9037E
:100CA8007908FB007B0883120313FF007A0884008D
:100CB8000A128A111A270A128A11003A031D652E90
:100CC800662E262E0800F701F8017208730403192E
:100CD8006E2E6F2EA62EF901F90A7D2E0130031013
:100CE800F20DF30DFF3E031D732E0130F60076085A
:100CF800F907F31F802E812E722E01300310F70D95
:100D0800F80DFF3E031D822E73087502031D8E2EFB
:100D180072087402031C912E922E992E7208F40206
:100D28007308031CF503F502771401300310F30C64
:100D3800F20CFF3E031D9A2E0130F902031DA52E69
:100D4800A62E812E7808F3007708F2000800831297
:100D58000313200821040319B22EB32EE22EFB013F
:100D6800FB0AC12E01300310A00DA10DFF3E031D8B
:100D7800B72E0130FA007A08FB07A11FC42EC52E32
:100D8800B62E21082302031DCB2E20082202031CA5
:100D9800CE2ECF2ED52E2008A2022108031CA30395
:100DA800A30201300310A10CA00CFF3E031DD62E98
:100DB8000130FB02031DE12EE22EC52E2308A100FF
:100DC8002208A0000800F60076080F39F40076081B
:100DD800F039F5008312031308157508F300043081
:100DE8000310F30CFF3E031DF42E73080A128A1138
:100DF80077270A128A118312031388150D30F3001E
:100E0800F30B042F83120313881174080A128A1132
:100E180077270A128A118312031388150D30F300FD
:100E2800F30B142F8312031388110800FF1B242FC0
:100E380083137F1883170008840A0319FF0A080020
:100E480007308A000408840A820700340134003419
:100E58000A34003464340034E8340334103427345A
:100E6800533431343A342034203420342034533449
:100E780032343A34203420342034533433343A343E
:100E880000342534753400342E34003483160317A7
:100E980089018316031386018501871007118801CC
:100EA8008312031385018601880189018B130B13B3
:100EB800831603138C110C13831203138710071165
:100EC800F201F301F40120300A128A11D0270A1224
:100ED8008A110D30F700FB30F600F60B712FF70B77
:100EE800712F762F0800F200721C7B2F7C2F802F29
:100EF800831203130816832F831203130812F21C9C
:100F0800862F872F892F88168A2F8812721D8D2F7A
:100F18008E2F902F0817912F0813F21D942F952FBD
:100F2800972F8817982F88130800831203138C1D96
:100F38009E2F9F2FA02F8C110C1EA32FA42FA52FFF
:100F48000C128C1EA82FA92FAA2F8C120B1CAD2FA8
:100F5800AE2FAF2F0B1071088A00700E8300FE0EA3
:100F68007E0E0900F50083120313081175080A1292
:100F78008A1177270A128A118312031388150630FB
:100F8800F4003030F300F30BC72FF40BC72F000029
:100F98008312031388110800F500831603138712C0
:100FA800751DD72FD82FDC2F740894008715E02FD4
:100FB800720874049400871175087304831203136C
:100FC8009400080000300A128A11B6270A128A1102
:100FD80001300A128A11B6270A128A110800640021
:0E0FE8008001840A0406031900340406F42F65
:08400000FF3FFF3FFF3FFF3FC0
:04400E00D420FF3F7C
:00000001FF
