:100000000A128A11EB2FFF1B0D2883137F18831709
:100010000008840A0319FF0A080000308A00040857
:10002000840A82070034013400340A340034643412
:100030000034E834033410342734533431343A3440
:100040002034203420342034533432343A342034B1
:1000500020342034533433343A3400342534753466
:0E00600000342E340034413400344234003475
:1002DA00F0007008831203139300080083160313B7
:1002EA00141C782979297329080064008001840A7A
:1002FA0004060319003404067B290A128A117321A1
:10030A000A128A11831203131308080000300A1212
:10031A008A11AE210A128A1101300A128A11AE21FB
:10032A000A128A110800F300831603138712731D39
:10033A009F29A029A429720894008715A829700862
:10034A0072049400871173087104831203139400D2
:10035A000800F30083120313081173080A128A11A2
:10036A00C8210A128A118312031388150630F20073
:10037A003030F100F10BBF29F20BBF2900008312C4
:10038A00031388110800F000701CCC29CD29D1294B
:10039A00831203130816D429831203130812F01CBC
:1003AA00D729D829DA298816DB298812701DDE296F
:1003BA00DF29E1290817E2290813F01DE529E629B2
:1003CA00E8298817E9298813080083160317890181
:1003DA0003308316031386008501871007118801ED
:1003EA008312031385018601880189018714F001AC
:1003FA00F101F20120300A128A1198210A128A1197
:10040A000D30F500FB30F400F40B092AF50B092A2C
:10041A000E2A08002830F0000030F100831203137E
:10042A006A08F3006908F2000A128A11E7220A121E
:10043A008A11710883120313E8007008E700283054
:10044A00F8000030F9006A08FB006908FA000A128D
:10045A008A116B220A128A11790883120313E600A1
:10046A007808E5000800F40074080F39F2007408EF
:10047A00F039F3008312031308157308F1000430EE
:10048A000310F10CFF3E031D452A71080A128A1156
:10049A00C8210A128A118312031388150D30F1003C
:1004AA00F10B552A83120313881172080A128A1152
:1004BA00C8210A128A118312031388150D30F1001C
:1004CA00F10B652A8312031388110800780879044E
:1004DA000319702A712AA02AFD01FD0A7F2A013018
:1004EA000310F80DF90DFF3E031D752A0130FC00BB
:1004FA007C08FD07F91F822A832A742A79087B025D
:10050A00031D892A78087A02031C8C2A8D2A932AC9
:10051A007808FA027908031CFB03FB020130031076
:10052A00F90CF80CFF3E031D942A0130FD02031D4D
:10053A009F2AA02A832A7B08F9007A08F800080073
:10054A00FA01FB01CA2A7A087507F8007608F7004B
:10055A000318F70AFA1FB22AF7037708F90079088D
:10056A0083120313FF00780884000A128A110320F9
:10057A000A128A110A128A1138220A128A110130C1
:10058A00FA070318FB0A0030FB077A087507F80018
:10059A007608F7000318F70AFA1FD42AF703770830
:1005AA00F900790883120313FF00780884000A12FD
:1005BA008A1103200A128A11003A031DE52AE62A43
:1005CA00A82A0800F501F601700871040319EE2A39
:1005DA00EF2A262BF701F70AFD2A01300310F00D46
:1005EA00F10DFF3E031DF32A0130F4007408F707EA
:1005FA00F11F002B012BF22A01300310F50DF60D25
:10060A00FF3E031D022B71087302031D0E2B700897
:10061A007202031C112B122B192B7008F20271089B
:10062A00031CF303F302751401300310F10CF00CF0
:10063A00FF3E031D1A2B0130F702031D252B262B23
:10064A00012B7608F1007508F00008000030FC0064
:10065A000030FB000030FA000030F900701C362B25
:10066A00372B4E2B7408F907750803110318013E3E
:10067A000319402BFA07760803110318013E0319E0
:10068A00472BFB07770803110318013E03194E2B6A
:10069A00FC070130F8000310F40DF50DF60DF70D07
:1006AA00F80B502B01300310F30CF20CF10CF00C88
:1006BA00FF3E031D582B7308720471047004031D56
:1006CA00672B682B332B7C08F3007B08F2007A082F
:1006DA00F1007908F0000800F00007307006031DE9
:1006EA00772B782B7C2B7030831603138F040630FC
:1006FA007006031D812B822B882B831603130F0888
:10070A008F3960388F0005307006031D8D2B8E2BB4
:10071A00942B831603130F088F3950388F00043037
:10072A007006031D992B9A2BA02B831603130F080F
:10073A008F3940388F0003307006031DA52BA62B76
:10074A00AC2B831603130F088F3930388F00023011
:10075A007006031DB12BB22BB82B831603130F0897
:10076A008F3920388F007003031DBC2BBD2BC32B80
:10077A00831603130F088F3910388F007008031D72
:10078A00C72BC82BCC2B8F30831603138F058316E8
:10079A0003130F1408008316031308118811081293
:1007AA0088120813881300300A128A11C8210A1203
:1007BA008A111A30F500F830F400F40BE22BF50B2D
:1007CA00E22B000003300A128A11AE210A128A11A2
:1007DA000730F5007D30F400F40BF12BF50BF12B0B
:1007EA0003300A128A11AE210A128A110F30F5005B
:1007FA004730F400F40BFF2BF50BFF2B042C0330CE
:10080A000A128A11AE210A128A1102300A128A11B8
:10081A00AE210A128A1102300A128A11AE210A1274
:10082A008A1108300A128A11AE210A128A1100307E
:10083A000A128A11AE210A128A110C300A128A117E
:10084A00AE210A128A1100300A128A11AE210A1246
:10085A008A1106300A128A11AE210A128A110A1264
:10086A008A118B210A128A110800F401F40A023053
:10087A000A128A11A9240A128A111C30831203133C
:10088A00A0006808A2006708A100A0300A128A1115
:10089A002A270A128A11A030F5000030F6000A123F
:1008AA008A11A5220A128A110230F40002300A12B1
:1008BA008A11A9240A128A111F30F5008030F60025
:1008CA000A128A11A5220A128A110330F400023090
:1008DA000A128A11A9240A128A111C3083120313DC
:1008EA00A0006608A2006508A100A0300A128A11B9
:1008FA002A270A128A11A030F5000030F6000A12DF
:10090A008A11A5220A128A110730F40002300A124B
:10091A008A11A9240A128A111C3083120313A00017
:10092A006008A2005F08A100A0300A128A112A27D3
:10093A000A128A11A030F5000030F6000A128A1154
:10094A00A5220A128A110800F6007603031DAE2CAE
:10095A00AF2CCC2C74087F3EF9007908F5000430DE
:10096A000310F50CFF3E031DB52C7508F700790836
:10097A000F39F80077080A128A11AE210A128A1171
:10098A0078080A128A11AE210A128A11352D02300C
:10099A007606031DD12CD22CEF2C7408BF3EF90029
:1009AA007908F50004300310F50CFF3E031DD82C1E
:1009BA007508F70079080F39F80077080A128A11C2
:1009CA00AE210A128A1178080A128A11AE210A1275
:1009DA008A11352D03307606031DF42CF52C122DC1
:1009EA007408933EF9007908F50004300310F50CF9
:1009FA00FF3E031DFB2C7508F70079080F39F80034
:100A0A0077080A128A11AE210A128A1178080A1284
:100A1A008A11AE210A128A11352D04307606031D79
:100A2A00172D182D352D7408D33EF9007908F500D5
:100A3A0004300310F50CFF3E031D1E2D7508F70048
:100A4A0079080F39F80077080A128A11AE210A12BA
:100A5A008A1178080A128A11AE210A128A11352DD2
:100A6A00080083120313A901A31F3C2D3D2D4A2D13
:100A7A00A009A109A209A309A00A0319A10A031935
:100A8A00A20A0319A30AA901A90AA71F4D2D4E2DCF
:100A9A005D2DA409A509A609A709A40A0319A50A8F
:100AAA000319A60A0319A70A0130FD007D08A90641
:100ABA000030AD000030AC000030AB000030AA00BE
:100ACA00230822042104200403196C2D6D2DBA2D4C
:100ADA00A801A80A7D2D0130FD000310A00DA10D6B
:100AEA00A20DA30DFD0B722D0130FD007D08A80794
:100AFA00A31F802D812D702D0130FD000310AA0D3A
:100B0A00AB0DAC0DAD0DFD0B832D23082702031D84
:100B1A00982D22082602031D982D21082502031D5F
:100B2A00982D20082402031C9B2D9C2DAB2D2008F8
:100B3A00A4022108031C210FA5022208031C220F6C
:100B4A00A6022308031C230FA7022A14013003104C
:100B5A00A30CA20CA10CA00CFF3E031DAC2D01306E
:100B6A00A802031DB92DBA2D812D29080319BE2DFE
:100B7A00BF2DCA2DAA09AB09AC09AD09AA0A0319E6
:100B8A00AB0A0319AC0A0319AD0A2D08A3002C08F5
:100B9A00A2002B08A1002A08A00008008312031350
:100BAA003608C2003708C3003808C4003908C5002F
:100BBA003208C2023308031C330FE42DE52DC302A9
:100BCA003408031C340FEA2DEB2DC4023508031C2C
:100BDA00350FF02DF12DC5024508A3004408A200E7
:100BEA004308A1004208A0002E08C6002F08C7002B
:100BFA003008C8003108C9003208C6023308031C8D
:100C0A00330F082E092EC7023408031C340F0E2E88
:100C1A000F2EC8023508031C350F142E152EC902D3
:100C2A004908F3004808F2004708F1004608F000B6
:100C3A003E08CA003F08CB004008CC004108CD005E
:100C4A003A08CA023B08031C3B0F2C2E2D2ECB025E
:100C5A003C08031C3C0F322E332ECC023D08031CE9
:100C6A003D0F382E392ECD024D08F7004C08F600FC
:100C7A004B08F5004A08F4000A128A112B230A12BB
:100C8A008A11730883120313A7007208A600710859
:100C9A00A5007008A4000A128A1136250A128A11C0
:100CAA008312031320083A07CE00003003180130DC
:100CBA002107D0010318D00A3B07CF000318D00A36
:100CCA0022085007D1010318D10A3C07D0000318A3
:100CDA00D10A230851073D07D1005108B100500835
:100CEA00B0004F08AF004E08AE00080006300A12E6
:100CFA008A1171230A128A110A128A11EA210A1226
:100D0A008A110A128A11D0230A128A1120308312F8
:100D1A000313D200D20B8F2E00000A128A118B21E4
:100D2A000A128A11F401F40A01300A128A11A9245A
:100D3A000A128A110B30F5008030F6000A128A1165
:100D4A00A5220A128A110A128A11EA210A128A11A2
:100D5A00831203138710C73083120313D200B52EF0
:100D6A00D20BB42EB82E21300A128A116D210A1222
:100D7A008A110A128A1182210A128A118312031312
:100D8A00EC006C08D200D301D401D5015508B1009A
:100D9A005408B0005308AF005208AE000030B50046
:100DAA000030B4000030B3000030B2000030B900A7
:100DBA000030B8000030B700FF30B6000030BD0088
:100DCA000030BC000030BB000130BA000030C10066
:100DDA000030C0000030BF00C830BE000A128A11BD
:100DEA00D3250A128A11831203132F08EA002E0848
:100DFA00E9000A128A110F220A128A110A128A11AA
:100E0A003A240A128A1123300A128A116D210A120F
:100E1A008A110A128A1182210A128A118312031371
:100E2A00D200D3015208DF005308E000C730831212
:100E3A000313D200202FD20B1F2F232F8312031349
:100E4A008714A82E0A128A11002883120313AB00F2
:100E5A002130A700D62F25302C060319352F362F1F
:100E6A00402F2B0884002C08831380000130A30034
:100E7A002308AB07D62FA601472FC030A3002308AB
:100E8A00A604612F0130A007FF30200784000A1250
:100E9A008A110D200A128A11AC00A300A4012408A9
:100EAA00003A0319592FD62F2308003A0319E62FBF
:100EBA00753A0319422FD62F270884008313000896
:100ECA00A800840A0008A9000230A3002308A70783
:100EDA00AC01AC0A2C08A3002307013E84000A12C5
:100EEA008A110D200A128A11A4000A128A110D20F1
:100EFA000A128A11A50025082902031D862F240833
:100F0A0028020318892F8A2F8B2F952F0130A300CF
:100F1A002308AC0705302C06031D942F952F6F2F3D
:100F2A002C08AA00CD2F0A30F8000030F9002A0850
:100F3A00A3002307013E84000A128A110D200A1217
:100F4A008A11F0000A128A110D200A128A11F10080
:100F5A002908F3002808F2000A128A11E7220A1265
:100F6A008A117108FB007008FA000A128A116B22B2
:100F7A000A128A117808303E83120313AC002B0838
:100F8A0084002C08831380000130A3002308AB07D8
:100F9A00FF30A3002308AA072A0A031DD52FD62F3C
:100FAA00982F0130A007FF30200784000A128A1107
:100FBA000D200A128A11AC002C08031DE52FE62F1A
:100FCA00302F2B08840083138001080083135630C6
:100FDA0084006D300A128A117A210A128A11A0300D
:100FEA008400B4300A128A117A210A128A11830102
:060FFA000A128A117B2E91
:08400000FF3FFF3FFF3FFF3FC0
:04400E00D420FF3F7C
:00000001FF
