:100000000A128A11EB2FFF1B0D2883137F18831709
:100010000008840A0319FF0A080000308A00040857
:10002000840A82070034013400340A340034643412
:100030000034E834033410342734533431343A3440
:100040002034203420342034533432343A342034B1
:1000500020342034533433343A3400342534753466
:0600600000342E340034D0
:10014800F00070088312031393000800831603134A
:10015800141CAF28B028AA28080064008001840A6B
:100168000406031900340406B2280A128A11AA20C8
:100178000A128A11831203131308080000300A12A6
:100188008A11E5200A128A1101300A128A11E52023
:100198000A128A110800F300831603138712731DCD
:1001A800D628D728DB28720894008715DF2870081E
:1001B8007204940087117308710483120313940066
:1001C8000800F30083120313081173080A128A1136
:1001D800FF200A128A118312031388150630F200D1
:1001E8003030F100F10BF628F20BF62800008312EC
:1001F800031388110800F000701C0329042908293A
:100208008312031308160B29831203130812F01C18
:100218000E290F291129881612298812701D1529EF
:1002280016291829081719290813F01D1C291D2932
:100238001F298817202988130800831603178901A6
:10024800831603138601850187100711880183121D
:100258000313850186018801890187140715F001B8
:10026800F101F20120300A128A11CF200A128A11F4
:100278000D30F500FB30F400F40B4029F50B402954
:1002880045290800F40074080F39F2007408F039A1
:10029800F3008312031308157308F10004300310E8
:1002A800F10CFF3E031D532971080A128A11FF2021
:1002B8000A128A118312031388150D30F100F10B0D
:1002C800632983120313881172080A128A11FF2006
:1002D8000A128A118312031388150D30F100F10BED
:1002E8007329831203138811080078087904031905
:1002F8007E297F29AE29FD01FD0A8D2901300310D1
:10030800F80DF90DFF3E031D83290130FC007C0820
:10031800FD07F91F90299129822979087B02031D7D
:10032800972978087A02031C9A299B29A129780819
:10033800FA027908031CFB03FB0201300310F90CD5
:10034800F80CFF3E031DA2290130FD02031DAD2953
:10035800AE2991297B08F9007A08F8000800FA010B
:10036800FB01D8297A087507F8007608F700031802
:10037800F70AFA1FC029F7037708F90079088312EA
:100388000313FF00780884000A128A1103200A1256
:100398008A110A128A1146210A128A110130FA07B3
:1003A8000318FB0A0030FB077A087507F80076087F
:1003B800F7000318F70AFA1FE229F7037708F9008C
:1003C800790883120313FF00780884000A128A113F
:1003D80003200A128A11003A031DF329F429B629C9
:1003E8000800F501F601700871040319FC29FD29BC
:1003F800342AF701F70A0B2A01300310F00DF10D2A
:10040800FF3E031D012A0130F4007408F707F11FAD
:100418000E2A0F2A002A01300310F50DF60DFF3EB3
:10042800031D102A71087302031D1C2A700872022A
:10043800031C1F2A202A272A7008F2027108031CAD
:10044800F303F302751401300310F10CF00CFF3EB6
:10045800031D282A0130F702031D332A342A0F2AE4
:100468007608F1007508F00008000030FC00003044
:10047800FB000030FA000030F900701C442A452ABD
:100488005C2A7408F907750803110318013E03195B
:100498004E2AFA07760803110318013E0319552A54
:1004A800FB07770803110318013E03195C2AFC07B0
:1004B8000130F8000310F40DF50DF60DF70DF80BEB
:1004C8005E2A01300310F30CF20CF10CF00CFF3E25
:1004D800031D662A7308720471047004031D752ACB
:1004E800762A412A7C08F3007B08F2007A08F1009A
:1004F8007908F00008002830F0000030F10083127D
:1005080003136C08F3006B08F2000A128A11F52134
:100518000A128A11710883120313E8007008E700B1
:100528002830F8000030F9006C08FB006B08FA006E
:100538000A128A1179210A128A117908831203137F
:10054800E6007808E5002830F0000030F1006A087D
:10055800F3006908F2000A128A11F5210A128A11B9
:10056800710883120313E4007008E3002830F800D0
:100578000030F9006A08FB006908FA000A128A11BB
:1005880079210A128A11790883120313E200780884
:10059800E1000800F00007307006031DD42AD52AB0
:1005A800D92A7030831603138F0406307006031D92
:1005B800DE2ADF2AE52A831603130F088F396038ED
:1005C8008F0005307006031DEA2AEB2AF12A8316EC
:1005D80003130F088F3950388F0004307006031D3D
:1005E800F62AF72AFD2A831603130F088F39403895
:1005F8008F0003307006031D022B032B092B831673
:1006080003130F088F3930388F0002307006031D2E
:100618000E2B0F2B152B831603130F088F39203839
:100628008F007003031D192B1A2B202B831603131D
:100638000F088F3910388F007008031D242B252BC5
:10064800292B8F30831603138F05831603130F147A
:10065800080083160313081188110812881208135A
:10066800881300300A128A11FF200A128A111A30E0
:10067800F500F830F400F40B3F2BF50B3F2B00008E
:1006880003300A128A11E5200A128A110730F50090
:100698007D30F400F40B4E2BF50B4E2B03300A1271
:1006A8008A11E5200A128A110F30F5004730F4004C
:1006B800F40B5C2BF50B5C2B612B03300A128A11AF
:1006C800E5200A128A1102300A128A11E5200A125C
:1006D8008A1102300A128A11E5200A128A1108309A
:1006E8000A128A11E5200A128A1100300A128A11A8
:1006F800E5200A128A110C300A128A11E5200A1222
:100708008A1100300A128A11E5200A128A1106306D
:100718000A128A11E5200A128A110A128A11C220C5
:100728000A128A110800F6007603031D9C2B9D2BE4
:10073800BA2B74087F3EF9007908F50004300310DD
:10074800F50CFF3E031DA32B7508F70079080F3938
:10075800F80077080A128A11E5200A128A11780827
:100768000A128A11E5200A128A11232C0230760611
:10077800031DBF2BC02BDD2B7408BF3EF900790881
:10078800F50004300310F50CFF3E031DC62B750859
:10079800F70079080F39F80077080A128A11E5205E
:1007A8000A128A1178080A128A11E5200A128A1197
:1007B800232C03307606031DE22BE32B002C740850
:1007C800933EF9007908F50004300310F50CFF3E5C
:1007D800031DE92B7508F70079080F39F800770829
:1007E8000A128A11E5200A128A1178080A128A1157
:1007F800E5200A128A11232C04307606031D052CE5
:10080800062C232C7408D33EF9007908F50004302F
:100818000310F50CFF3E031D0C2C7508F700790832
:100828000F39F80077080A128A11E5200A128A118E
:1008380078080A128A11E5200A128A11232C080066
:1008480083120313A901A31F2A2C2B2C382CA009CF
:10085800A109A209A309A00A0319A10A0319A20A56
:100868000319A30AA901A90AA71F3B2C3C2C4B2C4E
:10087800A409A509A609A709A40A0319A50A031921
:10088800A60A0319A70A0130FD007D08A906003051
:10089800AD000030AC000030AB000030AA002308E7
:1008A80022042104200403195A2C5B2CA82CA8012B
:1008B800A80A6B2C0130FD000310A00DA10DA20D9C
:1008C800A30DFD0B602C0130FD007D08A807A31FB8
:1008D8006E2C6F2C5E2C0130FD000310AA0DAB0DA1
:1008E800AC0DAD0DFD0B712C23082702031D862CC2
:1008F80022082602031D862C21082502031D862CAA
:1009080020082402031C892C8A2C992C2008A40274
:100918002108031C210FA5022208031C220FA6028E
:100928002308031C230FA7022A1401300310A30C69
:10093800A20CA10CA00CFF3E031D9A2C0130A802AA
:10094800031DA72CA82C6F2C29080319AC2CAD2C3F
:10095800B82CAA09AB09AC09AD09AA0A0319AB0A54
:100968000319AC0A0319AD0A2D08A3002C08A2002C
:100978002B08A1002A08A0000800831203133608D8
:10098800C2003708C3003808C4003908C500320857
:10099800C2023308031C330FD22CD32CC3023408F1
:1009A800031C340FD82CD92CC4023508031C350F6E
:1009B800DE2CDF2CC5024508A3004408A20043082A
:1009C800A1004208A0002E08C6002F08C700300862
:1009D800C8003108C9003208C6023308031C330FA7
:1009E800F62CF72CC7023408031C340FFC2CFD2C02
:1009F800C8023508031C350F022D032DC90249080A
:100A0800F3004808F2004708F1004608F0003E08E5
:100A1800CA003F08CB004008CC004108CD003A0886
:100A2800CA023B08031C3B0F1A2D1B2DCB023C08A6
:100A3800031C3C0F202D212DCC023D08031C3D0F2B
:100A4800262D272DCD024D08F7004C08F6004B083F
:100A5800F5004A08F4000A128A1139220A128A118A
:100A6800730883120313A7007208A6007108A50073
:100A78007008A4000A128A1124240A128A11831207
:100A8800031320083A07CE0000300318013021076D
:100A9800D0010318D00A3B07CF000318D00A220858
:100AA8005007D1010318D10A3C07D0000318D10A16
:100AB800230851073D07D1005108B1005008B00084
:100AC8004F08AF004E08AE000800F401F40A0230E7
:100AD8000A128A1197230A128A111C3083120313EF
:100AE800A0006808A2006708A100A0300A128A11B5
:100AF80026260A128A11A030F5000030F6000A12E4
:100B08008A11B3210A128A110230F40002300A1243
:100B18008A1197230A128A111F30F5008030F600D7
:100B28000A128A11B3210A128A110330F400023022
:100B38000A128A1197230A128A111C30831203138E
:100B4800A0006608A2006508A100A0300A128A1158
:100B580026260A128A11A030F5000030F6000A1283
:100B68008A11B3210A128A110C30F40002300A12D9
:100B78008A1197230A128A111C3083120313A000CA
:100B88006408A2006308A100A0300A128A11262670
:100B98000A128A11A030F5000030F6000A128A11F4
:100BA800B3210A128A110D30F40002300A128A1198
:100BB80097230A128A111F30F5008030F6000A12B6
:100BC8008A11B3210A128A110E30F40002300A1277
:100BD8008A1197230A128A111C3083120313A0006A
:100BE8006208A2006108A100A0300A128A11262614
:100BF8000A128A11A030F5000030F6000A128A1194
:100C0800B3210A128A110730F40002300A128A113D
:100C180097230A128A111C3083120313A000003094
:100C2800A100A200A0300A128A1126260A128A11EF
:100C3800A030F5000030F6000A128A11B3210A121A
:100C48008A11080083120313AB002130A700D22EAB
:100C580025302C060319312E322E3C2E2B08840009
:100C68002C08831380000130A3002308AB07D22E81
:100C7800A601432EC030A3002308A6045D2E013030
:100C8800A007FF30200784000A128A110D200A12DB
:100C98008A11AC00A300A4012408003A0319552EB8
:100CA800D22E2308003A0319E22E753A03193E2E74
:100CB800D22E2708840083130008A800840A00089D
:100CC800A9000230A3002308A707AC01AC0A2C082E
:100CD800A3002307013E84000A128A110D200A127C
:100CE8008A11A4000A128A110D200A128A11A5007D
:100CF80025082902031D822E240828020318852EA0
:100D0800862E872E912E0130A3002308AC070530CC
:100D18002C06031D902E912E6B2E2C08AA00C92E8E
:100D28000A30F8000030F9002A08A3002307013E22
:100D380084000A128A110D200A128A11F0000A1280
:100D48008A110D200A128A11F1002908F3002808D7
:100D5800F2000A128A11F5210A128A117108FB00A1
:100D68007008FA000A128A1179210A128A11780881
:100D7800303E83120313AC002B0884002C08831325
:100D880080000130A3002308AB07FF30A30023082D
:100D9800AA072A0A031DD12ED22E942E0130A007AD
:100DA800FF30200784000A128A110D200A128A11C6
:100DB800AC002C08031DE12EE22E2C2E2B088400FB
:100DC80083138001080006300A128A11CE220A1203
:100DD8008A110A128A1121210A128A110A128A1109
:100DE8002D230A128A11203083120313D200D20B4A
:100DF800FB2E00000A128A11C2200A128A11F4017D
:100E0800F40A01300A128A1197230A128A110B3048
:100E1800F5008030F6000A128A11B3210A128A11ED
:100E28000A128A1121210A128A11831203138710C8
:100E3800C73083120313D200212FD20B202F242F67
:100E48008312031306080A128A11A4200A128A11AF
:100E58000A128A11B9200A128A1183120313EE00AA
:100E68006E08D200D301D401D5015508B100540849
:100E7800B0005308AF005208AE000030B500003093
:100E8800B4000030B3000030B2000030B9000030C8
:100E9800B8000030B700FF30B6000030BD000030A9
:100EA800BC000030BB000130BA000030C100003087
:100EB800C0000030BF00C830BE000A128A11C12429
:100EC8000A128A11831203132F08EC002E08EB0074
:100ED8000A128A117F220A128A110A128A116925B6
:100EE8000A128A11C73083120313D2007B2FD20B48
:100EF8007A2F7E2F8312031387140711C7308312AA
:100F08000313D200872FD20B862F8A2F8312031345
:100F180006080A128A11A4200A128A110A128A11D2
:100F2800B9200A128A1183120313ED006D08D2004A
:100F3800D301D401D5015508B1005408B0005308B5
:100F4800AF005208AE000030B5000030B4000030E9
:100F5800B3000030B2000030B9000030B8000030F3
:100F6800B700FF30B6000030BD000030BC000030D4
:100F7800BB000130BA000030C1000030C0000030B2
:100F8800BF00C830BE000A128A11C1240A128A1191
:100F9800831203132F08EA002E08E9000A128A11A7
:100FA8007F220A128A110A128A1169250A128A11E5
:100FB800C73083120313D200E12FD20BE02FE42FA6
:100FC800831203130715142F0A128A11002883139A
:100FD800563084006F300A128A11B1200A128A1121
:100FE800A0308400B4300A128A11B1200A128A1182
:080FF80083010A128A11E72EA1
:08400000FF3FFF3FFF3FFF3FC0
:04400E00D420FF3F7C
:00000001FF
