:060000000A128A110C280F
:10000800FE00030EF7000A08F8000A128A110029F8
:100018000A128A110F28F901FA0183010A128A11BA
:10002800602983120313A00007302006031D1D2832
:100038001E2822287030831603138F04063083127B
:100048002006031D282829282F28831603130F08A4
:100058008F3960388F00053083122006031D35283C
:1000680036283C28831603130F088F3950388F0021
:10007800043083122006031D42284328492883168A
:1000880003130F088F3940388F000330831220067E
:10009800031D4F2850285628831603130F088F393D
:1000A80030388F00023083122006031D5C285D283B
:1000B8006328831603130F088F3920388F008312A3
:1000C8002003031D682869286F28831603130F0867
:1000D8008F3910388F0083122008031D7428752863
:1000E80079288F30831603138F05831603130F1493
:1000F8000800F4007408031D822883289A28C33056
:10010800831203139F052130F200F20B8928831212
:1001180003139F140C1F912892288E281E08F200A2
:10012800F3017208F0007308F100BF287403031D7F
:100138009E289F28AC28831203131F08C33904384C
:100148009F002130F200F20BA728831203139F149B
:1001580002307406031DB128B228BF288312031386
:100168001F08C33908389F002130F200F20BBA2863
:10017800831203139F14080083120313201CC5283D
:10018800C628CD28051083160313051483160317F4
:10019800081483120313A01CD228D328DA28851048
:1001A8008316031385148316031788148312031305
:1001B800201DDF28E028E7280511831603130515FD
:1001C8008316031708150B17831603130C178312CE
:1001D80003130C139F131F17831603139F121F1269
:1001E8009F13831203131F14203083120313A200DA
:1001F800A20BFC2800000800831203138C1D05299C
:1002080006291C291308FA000730F6007D30F5008E
:10021800F50B0C29F60B0C2900300A128A117D20E7
:100228000A128A117008F9007908831203139300DF
:100238008C1178088A00770E8300FE0E7E0E090066
:100248008316031788018901831603138801831213
:100258000313860188018B170B178C118316031360
:100268008C15851683120313A001A101A201243065
:100278000A128A1142210A128A11080083120313F2
:10028800A30083160313871283120313231D4D291A
:100298004E295429220883160313940087155A29D6
:1002A8002008220483160313940087118312031372
:1002B80023082104940008000A128A1124210A1232
:1002C8008A11013083120313A0000030A1000A1222
:1002D8008A11C0200A128A1106300A128A111520C2
:0C02E8000A128A1176290A128A110C28C9
:08400000FF3FFF3FFF3FFF3FC0
:04400E00D420FF3F7C
:00000001FF
