:060000000A128A110C280F
:10000800FE00030EF2000A08F3000A128A111529ED
:100018000A128A110F28F801F90183010A128A11BC
:10002800EA28F40007307406031D1B281C28202822
:100038007030831603138F0406307406031D2528B9
:1000480026282C28831603130F088F3960388F0051
:1000580005307406031D3128322838288316031307
:100068000F088F3950388F0004307406031D3D285F
:100078003E284428831603130F088F3940388F0011
:1000880003307406031D49284A2850288316031391
:100098000F088F3930388F0002307406031D552839
:1000A80056285C28831603130F088F3920388F00D1
:1000B8007403031D602861286728831603130F083B
:1000C8008F3910388F007408031D6B286C2870282E
:1000D8008F30831603138F05831603130F1408003C
:1000E800741C772878288128831203130510831637
:1000F80003130514831603170814F41C8428852891
:100108008E28831203138510831603138514831610
:1001180003178814741D912892289B2883120313AF
:1001280005118316031305158316031708150B17F6
:10013800831603130C17831203130C139F131F1733
:10014800831603139F121F129F13831203131F1486
:100158000830F600F60BAE28080074087504031D75
:10016800B628B728C228C330831203139F05083066
:10017800F600F60BBD28831203139F14740375044D
:10018800031DC728C828D528831203131F08C3399D
:1001980004389F000830F600F60BD02883120313AA
:1001A8009F14023074067504031DDB28DC28E92837
:1001B800831203131F08C33908389F000830F6005C
:1001C800F60BE428831203139F1408000A128A11FD
:1001D8003D210A128A110130F4000030F5000A129C
:1001E8008A1174200A128A1106300A128A111520FF
:1001F8000A128A110030F400F5000A128A11B1209F
:100208000A128A111A3083120313A100F730A000D2
:10021800A00B0C29A10B0C291129FE280A128A11FE
:100228000C28831203130C1F1A291B2929291F0CB8
:10023800F100710C0F39003A031D232924292829BC
:100248001E08F8001E0888000C138C1D2C292D2967
:10025800362978080A128A116F210A128A11831224
:1002680003138C1173088A00720E8300FE0E7E0E33
:10027800090083160317880189018316031388016F
:1002880083120313860188018B170B178C118316B1
:1002980003138C158516F401F501F60124300A12B2
:1002A8008A1159210A128A110800F70083160313CC
:1002B8008712771D602961296529760894008715BA
:1002C80069297408760494008711770875048312E5
:1002D800031394000800F0007008831203139300BE
:0202E80008000C
:08400000FF3FFF3FFF3FFF3FC0
:04400E00D620FF3F7A
:00000001FF
