:060000000A128A110C280F
:10000800FE00030EF2000A08F3000A128A112329DF
:100018000A128A110F28F601F701F801F901830184
:100028000A128A11F828F40007307406031D1D28E7
:100038001E2822287030831603138F040630740696
:10004800031D272828282E28831603130F088F3905
:1000580060388F0005307406031D332834283A2889
:10006800831603130F088F3950388F000430740635
:10007800031D3F2840284628831603130F088F398D
:1000880040388F0003307406031D4B284C28522833
:10009800831603130F088F3930388F000230740627
:1000A800031D572858285E28831603130F088F3915
:1000B80020388F007403031D62286328692883167B
:1000C80003130F088F3910388F007408031D6D282B
:1000D8006E2872288F30831603138F058316031337
:1000E8000F14080074087504031D7B287C288A28CF
:1000F800C330831203139F05073083120313A00034
:10010800A00B84280000831203139F147403750442
:10011800031D8F289028A028831203131F08C339B2
:1001280004389F00073083120313A000A00B9A28FD
:100138000000831203139F14023074067504031D14
:10014800A628A728B728831203131F08C33908381D
:100158009F00073083120313A000A00BB1280000F2
:10016800831203139F140800741CBB28BC28C528DD
:10017800831203130510831603130514831603173C
:100188000814F41CC828C928D22883120313851020
:10019800831603138514831603178814741DD52832
:1001A800D628DF28831203130511831603130515B8
:1001B8008316031708150B17831603130C178312DE
:1001C80003130C139F131F17831603139F121F1279
:1001D8009F13831203131F14073083120313A00005
:1001E800A00BF428000008000A128A114B210A12F9
:1001F8008A110130F4000030F5000A128A11B82083
:100208000A128A1106300A128A1117200A128A1154
:100218000030F400F5000A128A1176200A128A11B9
:100228001A3083120313A400F730A300A30B1A2972
:10023800A40B1A291F290C290A128A110C288312C7
:1002480003130C1F2829292937291F0CF100710CC9
:100258000F39003A031D3129322936291E08F800C2
:100268001E0888000C138C1D3A293B29442978085C
:100278000A128A1189210A128A11831203138C1116
:1002880073088A00720E8300FE0E7E0E0900831624
:100298000317880189010330831603138600880138
:1002A80083120313860188018B170B178C11831691
:1002B80003138C15851683120313A001A101A20153
:1002C80024300A128A116B210A128A110800F400DC
:1002D800831603138712741D722973297B298312CD
:1002E80003132208831603139400871583298312A6
:1002F800031320082204831603139400871174083B
:1003080083120313210494000800F000700883127C
:060318000313930008002E
:08400000FF3FFF3FFF3FFF3FC0
:04400E00D620FF3F7A
:00000001FF
