:060000000A128A110C280F
:10000800FE00030EF3000A08F4000A128A111728EA
:100018000A128A110F28F501F601F701F801830188
:100028000A128A116A290B1C1A281B284B288312CA
:10003800031306182028212835282730F200F53028
:10004800F100F10B2528F20B252883120313061C57
:100058002E282F284B280130F1007108F5070B10C6
:100068004B288618382839284B282730F200F530D5
:10007800F100F10B3D28F20B3D2883120313861C77
:10008800462847284B280130F5020B104B288312CD
:1000980003130C1F502851285D281F0CF100710C08
:1000A8000F39003A031D59285A285C281E08F70002
:1000B8000C138C1D602861287D2841307606031DAD
:1000C800662867286E2877080A128A11EF210A1213
:1000D8008A117A2842307606031D732874287A28F4
:1000E80077080A128A11EF210A128A118312031360
:1000F8008C1174088A00730E8300FE0E7E0E0900B0
:1001080083120313A00007302006031D8C288D28B6
:1001180091287030831603138F040630831220064B
:10012800031D972898289E28831603130F088F39D4
:1001380060388F00053083122006031DA428A528E7
:10014800AB28831603130F088F3950388F000430FB
:1001580083122006031DB128B228B828831603137A
:100168000F088F3940388F00033083122006031D93
:10017800BE28BF28C528831603130F088F393038C7
:100188008F00023083122006031DCB28CC28D228EA
:10019800831603130F088F3920388F00831220032A
:1001A800031DD728D828DE28831603130F088F3994
:1001B80010388F0083122008031DE328E428E8285C
:1001C8008F30831603138F05831603130F1408004B
:1001D80083120313201CF128F228F928051083162E
:1001E8000313051483160317081483120313A01CA2
:1001F800FE28FF2806298510831603138514831605
:100208000317881483120313201D0B290C291329A3
:1002180005118316031305158316031708150B1705
:10022800831603130C17831203130C139F131F1742
:10023800831603139F121F129F13831203131F1495
:10024800073083120313A200A20B2829000008001C
:100258008312031320082104031D3329342940295C
:10026800C3309F05073083120313A200A20B3A295B
:100278000000831203139F1420032104031D452942
:10028800462954291F08C33904389F0007308312B0
:100298000313A200A20B4E290000831203139F141C
:1002A800023020062104031D5A295B2969291F08E9
:1002B800C33908389F00073083120313A200A20B2A
:1002C80063290000831203139F1408000A128A117D
:1002D800A2210A128A11013083120313A0000030F0
:1002E800A1000A128A11EC200A128A1106300A1299
:1002F8008A1184200A128A110A128A11DF210A122D
:100308008A11F600003083120313A000A1000A121C
:100318008A112C210A128A11023083120313A600B3
:100328004530A500A930A400A40B9829A50B98294D
:10033800A60B982980290A128A110C2883160317FC
:100348008801890183160313860188018312031328
:10035800860188018B170B178C11831603138C15D4
:10036800851683120313A001A101A20124300A12E9
:100378008A11C1210A128A11080083120313A300EB
:1003880083160313871283120313231DCC29CD2947
:10039800D32922088316031394008715D929200826
:1003A800220483160313940087118312031323086E
:1003B8002104940008000A128A11E8210A128A11FD
:1003C800831203131308080083160313141CED2962
:1003D800EE29E8290800F00070088312031393003F
:0203E80008000B
:08400000FF3FFF3FFF3FFF3FC0
:04400E00D620FF3F7A
:00000001FF
