:060000000A128A110C280F
:10000800FE00030EF7000A08F8000A128A111628E3
:100018000A128A110F28F901FA01FB0183010A1259
:100028008A11B729831203138C1D1B281C28442806
:100038001308FB000730F6007D30F500F50B222889
:10004800F60B22287B03031D2A282B283028790841
:1000580083120313930041287B08031D3428352895
:10006800412800300A128A11EB200A128A117008FE
:10007800FA007A08831203139300831203138C1176
:100088000B1C472848287C2806184B284C2863282E
:100098000430F600E430F500F50B5028F60B502834
:1000A800000083120313061C5A285B287B280130A2
:1000B800F5007508F907790888000B107B28861861
:1000C800662867287B280430F600E430F500F50B35
:1000D8006B28F60B6B28000083120313861C752807
:1000E80076287B280130F902790888000B100B105C
:1000F80078088A00770E8300FE0E7E0E09008312B0
:100108000313A00007302006031D8B288C28902895
:100118007030831603138F04063083122006031DE4
:10012800962897289D28831603130F088F3960385F
:100138008F00053083122006031DA328A428AA28AF
:10014800831603130F088F3950388F000430831239
:100158002006031DB028B128B728831603130F08FB
:100168008F3940388F00033083122006031DBD28C5
:10017800BE28C428831603130F088F3930388F0020
:10018800023083122006031DCA28CB28D1288316E3
:1001980003130F088F3920388F0083122003031DA3
:1001A800D628D728DD28831603130F088F3910386F
:1001B8008F0083122008031DE228E328E7288F30E8
:1001C800831603138F05831603130F140800F40016
:1001D8007408031DF028F1280829C330831203137B
:1001E8009F052130F200F20BF728831203139F14A6
:1001F8000C1FFF280029FC281E08F200F3017208D2
:10020800F0007308F1002D297403031D0C290D2932
:100218001A29831203131F08C33904389F00213099
:10022800F200F20B1529831203139F14023074068F
:10023800031D1F2920292D29831203131F08C339E1
:1002480008389F002130F200F20B2829831203138B
:100258009F14080083120313201C332934293B29D7
:100268000510831603130514831603170814831245
:100278000313A01C4029412948298510831603131C
:10028800851483160317881483120313201D4D2920
:100298004E295529051183160313051583160317CF
:1002A80008150B17831603130C17831203130C136B
:1002B8009F131F17831603139F121F129F13831276
:1002C80003131F14203083120313A200A20B6A2900
:1002D800000008008316031788018901033083167C
:1002E80003138600880183120313860188018B1586
:1002F8000B108B17831603131514951416149614E4
:1003080081130B17831203138C11831603138C1597
:10031800851683120313A001A101A20124300A1239
:100328008A1199210A128A11080083120313A30063
:1003380083160313871283120313231DA429A529E7
:10034800AB2922088316031394008715B1292008C6
:1003580022048316031394008711831203132308BE
:100368002104940008000A128A116E210A128A11C7
:10037800013083120313A0000030A1000A128A1171
:100388002E210A128A1106300A128A1183200A12B3
:0E0398008A11FA01FB01CF290A128A110C28E2
:08400000FF3FFF3FFF3FFF3FC0
:04400E00D420FF3F7C
:00000001FF
